{
  "contractName": "Lottery",
  "abi": [
    {
      "inputs": [],
      "payable": false,
      "stateMutability": "nonpayable",
      "type": "constructor"
    },
    {
      "anonymous": false,
      "inputs": [
        {
          "indexed": false,
          "internalType": "uint8",
          "name": "winningNumber",
          "type": "uint8"
        },
        {
          "indexed": false,
          "internalType": "address payable[]",
          "name": "winners",
          "type": "address[]"
        }
      ],
      "name": "DetermineWinner",
      "type": "event"
    },
    {
      "anonymous": false,
      "inputs": [
        {
          "indexed": false,
          "internalType": "uint8",
          "name": "numberOfPlayers",
          "type": "uint8"
        }
      ],
      "name": "SecondRound",
      "type": "event"
    },
    {
      "constant": true,
      "inputs": [],
      "name": "isOwner",
      "outputs": [
        {
          "internalType": "bool",
          "name": "",
          "type": "bool"
        }
      ],
      "payable": false,
      "stateMutability": "view",
      "type": "function"
    },
    {
      "constant": true,
      "inputs": [],
      "name": "getRound",
      "outputs": [
        {
          "internalType": "enum Lottery.LotteryState",
          "name": "",
          "type": "uint8"
        }
      ],
      "payable": false,
      "stateMutability": "view",
      "type": "function"
    },
    {
      "constant": false,
      "inputs": [
        {
          "internalType": "bytes32",
          "name": "x",
          "type": "bytes32"
        }
      ],
      "name": "enterHash",
      "outputs": [],
      "payable": true,
      "stateMutability": "payable",
      "type": "function"
    },
    {
      "constant": false,
      "inputs": [],
      "name": "runSecondRound",
      "outputs": [],
      "payable": false,
      "stateMutability": "nonpayable",
      "type": "function"
    },
    {
      "constant": false,
      "inputs": [
        {
          "internalType": "uint8",
          "name": "number",
          "type": "uint8"
        }
      ],
      "name": "enterNumber",
      "outputs": [],
      "payable": false,
      "stateMutability": "nonpayable",
      "type": "function"
    },
    {
      "constant": false,
      "inputs": [],
      "name": "determineWinner",
      "outputs": [],
      "payable": false,
      "stateMutability": "nonpayable",
      "type": "function"
    },
    {
      "constant": true,
      "inputs": [],
      "name": "getWinners",
      "outputs": [
        {
          "internalType": "address payable[]",
          "name": "",
          "type": "address[]"
        }
      ],
      "payable": false,
      "stateMutability": "view",
      "type": "function"
    }
  ],
  "bytecode": "0x608060405234801561001057600080fd5b5033600460016101000a81548173ffffffffffffffffffffffffffffffffffffffff021916908373ffffffffffffffffffffffffffffffffffffffff1602179055506000600460156101000a81548160ff0219169083600281111561007157fe5b0217905550610ebb806100856000396000f3fe6080604052600436106100705760003560e01c80635a2be0441161004e5780635a2be044146100f85780638f32d59b1461010f5780639f8743f71461013e578063df15c37e1461017757610070565b806311f1321014610075578063137da17c146100a357806333b16d93146100e1575b600080fd5b6100a16004803603602081101561008b57600080fd5b81019080803590602001909291905050506101e3565b005b3480156100af57600080fd5b506100df600480360360208110156100c657600080fd5b81019080803560ff169060200190929190505050610370565b005b3480156100ed57600080fd5b506100f6610666565b005b34801561010457600080fd5b5061010d610955565b005b34801561011b57600080fd5b50610124610b25565b604051808215151515815260200191505060405180910390f35b34801561014a57600080fd5b50610153610b7d565b6040518082600281111561016357fe5b60ff16815260200191505060405180910390f35b34801561018357600080fd5b5061018c610b94565b6040518080602001828103825283818151815260200191508051906020019060200280838360005b838110156101cf5780820151818401526020810190506101b4565b505050509050019250505060405180910390f35b600060028111156101f057fe5b600460159054906101000a900460ff16600281111561020b57fe5b1461027e576040517f08c379a00000000000000000000000000000000000000000000000000000000081526004018080602001828103825260138152602001807f4d75737420626520666972737420726f756e640000000000000000000000000081525060200191505060405180910390fd5b670de0b6b3a764000034146102fb576040517f08c379a000000000000000000000000000000000000000000000000000000000815260040180806020018281038252600d8152602001807f4d7573742062652031204574680000000000000000000000000000000000000081525060200191505060405180910390fd5b80600160003373ffffffffffffffffffffffffffffffffffffffff1673ffffffffffffffffffffffffffffffffffffffff168152602001908152602001600020819055506001600460008282829054906101000a900460ff160192506101000a81548160ff021916908360ff16021790555050565b60fa8160ff1611156103ea576040517f08c379a000000000000000000000000000000000000000000000000000000000815260040180806020018281038252600a8152602001807f312d323530206f6e6c790000000000000000000000000000000000000000000081525060200191505060405180910390fd5b600160028111156103f757fe5b600460159054906101000a900460ff16600281111561041257fe5b14610485576040517f08c379a00000000000000000000000000000000000000000000000000000000081526004018080602001828103825260148152602001807f4d757374206265207365636f6e6420726f756e6400000000000000000000000081525060200191505060405180910390fd5b600160003373ffffffffffffffffffffffffffffffffffffffff1673ffffffffffffffffffffffffffffffffffffffff168152602001908152602001600020548133604051602001808360ff1660ff1660f81b81526001018273ffffffffffffffffffffffffffffffffffffffff1673ffffffffffffffffffffffffffffffffffffffff1660601b815260140192505050604051602081830303815290604052805190602001201461059f576040517f08c379a000000000000000000000000000000000000000000000000000000000815260040180806020018281038252601d8152602001807f4e756d626572206d7573742062652073616d652061732063686f73656e00000081525060200191505060405180910390fd5b6000808260ff1660ff1681526020019081526020016000203390806001815401808255809150509060018203906000526020600020016000909192909190916101000a81548173ffffffffffffffffffffffffffffffffffffffff021916908373ffffffffffffffffffffffffffffffffffffffff16021790555050600381908060018154018082558091505090600182039060005260206000209060209182820401919006909192909190916101000a81548160ff021916908360ff1602179055505050565b600460019054906101000a900473ffffffffffffffffffffffffffffffffffffffff1673ffffffffffffffffffffffffffffffffffffffff163373ffffffffffffffffffffffffffffffffffffffff1614610729576040517f08c379a000000000000000000000000000000000000000000000000000000000815260040180806020018281038252601b8152602001807f4f6e6c7920746865206f776e65722063616e20646f20746869732e000000000081525060200191505060405180910390fd5b6002600460156101000a81548160ff0219169083600281111561074857fe5b0217905550610755610cc4565b600260006101000a81548160ff021916908360ff1602179055506060600080600260009054906101000a900460ff1660ff1660ff16815260200190815260200160002080548060200260200160405190810160405280929190818152602001828054801561081857602002820191906000526020600020905b8160009054906101000a900473ffffffffffffffffffffffffffffffffffffffff1673ffffffffffffffffffffffffffffffffffffffff16815260200190600101908083116107ce575b505050505090507f1b62259e13d112f951d4b893f0d409c34c96a301e84c067da2360e4a42bea0b7600260009054906101000a900460ff1682604051808360ff1660ff16815260200180602001828103825283818151815260200191508051906020019060200280838360005b838110156108a0578082015181840152602081019050610885565b50505050905001935050505060405180910390a16000815111156109525760006108cb478351610d55565b905060008090505b82518160ff16101561094f576000838260ff16815181106108f057fe5b602002602001015190508073ffffffffffffffffffffffffffffffffffffffff166108fc849081150290604051600060405180830381858888f19350505050158015610940573d6000803e3d6000fd5b505080806001019150506108d3565b50505b50565b600460019054906101000a900473ffffffffffffffffffffffffffffffffffffffff1673ffffffffffffffffffffffffffffffffffffffff163373ffffffffffffffffffffffffffffffffffffffff1614610a18576040517f08c379a000000000000000000000000000000000000000000000000000000000815260040180806020018281038252601b8152602001807f4f6e6c7920746865206f776e65722063616e20646f20746869732e000000000081525060200191505060405180910390fd5b60006002811115610a2557fe5b600460159054906101000a900460ff166002811115610a4057fe5b14610ab3576040517f08c379a00000000000000000000000000000000000000000000000000000000081526004018080602001828103825260138152602001807f4d75737420626520666972737420726f756e640000000000000000000000000081525060200191505060405180910390fd5b7f503ccda0ae8566117bbf12e433ac65862712940240e53ca113967eee6dff81ae600460009054906101000a900460ff16604051808260ff1660ff16815260200191505060405180910390a16001600460156101000a81548160ff02191690836002811115610b1e57fe5b0217905550565b6000600460019054906101000a900473ffffffffffffffffffffffffffffffffffffffff1673ffffffffffffffffffffffffffffffffffffffff163373ffffffffffffffffffffffffffffffffffffffff1614905090565b6000600460159054906101000a900460ff16905090565b6060600280811115610ba257fe5b600460159054906101000a900460ff166002811115610bbd57fe5b14610c13576040517f08c379a0000000000000000000000000000000000000000000000000000000008152600401808060200182810382526021815260200180610e666021913960400191505060405180910390fd5b600080600260009054906101000a900460ff1660ff1660ff168152602001908152602001600020805480602002602001604051908101604052809291908181526020018280548015610cba57602002820191906000526020600020905b8160009054906101000a900473ffffffffffffffffffffffffffffffffffffffff1673ffffffffffffffffffffffffffffffffffffffff1681526020019060010190808311610c70575b5050505050905090565b6000806003600081548110610cd557fe5b90600052602060002090602091828204019190069054906101000a900460ff1690506000600190505b6003805490508160ff161015610d4d5760038160ff1681548110610d1e57fe5b90600052602060002090602091828204019190069054906101000a900460ff1682189150806001019050610cfe565b508091505090565b6000610d9783836040518060400160405280601a81526020017f536166654d6174683a206469766973696f6e206279207a65726f000000000000815250610d9f565b905092915050565b60008083118290610e4b576040517f08c379a00000000000000000000000000000000000000000000000000000000081526004018080602001828103825283818151815260200191508051906020019080838360005b83811015610e10578082015181840152602081019050610df5565b50505050905090810190601f168015610e3d5780820380516001836020036101000a031916815260200191505b509250505060405180910390fd5b506000838581610e5757fe5b04905080915050939250505056fe4c6f74746572795374617465206e6565647320746f2062652066696e6973686564a265627a7a72315820076b7bdc8c5c3ee2f0f95a6f34cd8b6444304c45283f7e0772ada955ae4444e364736f6c63430005100032",
  "source": "pragma solidity ^0.5.8;\n\nimport { SafeMath } from \"./SafeMath.sol\";\n\ncontract Lottery {\n\n    //Rounds of lottery\n    enum LotteryState { FirstRound, SecondRound, Finished }\n\n    mapping (uint8 => address payable[]) playersByNumber;\n    mapping (address => bytes32) playersHash;\n\n    uint8 winningNumber;\n    uint8[] numbers;\n    uint8 players;\n    address owner;\n    LotteryState state;\n\n    //Constructor\n    constructor () public {\n        owner = msg.sender;\n        state = LotteryState.FirstRound;\n    }\n\n    event SecondRound(uint8 numberOfPlayers);\n    event DetermineWinner(uint8 winningNumber, address payable[] winners);\n\n    //Owner only modifier\n    modifier onlyOwner {\n        require(msg.sender == owner, \"Only the owner can do this.\");\n        _;\n    }\n\n    //Checks if the given address is the owner\n    function isOwner() public view returns (bool) {\n        return (msg.sender == owner);\n    }\n\n    //Get current state\n    function getRound() public view returns (LotteryState) {\n        return state;\n    }\n\n    //Enter hash of guessed number\n    function enterHash(bytes32 x) public payable {\n        require(state == LotteryState.FirstRound, \"Must be first round\");\n        require(msg.value == 1 ether, \"Must be 1 Eth\");\n        playersHash[msg.sender] = x;\n        players += 1;\n    }\n\n    //Owner runs the second round of the lottery\n    function runSecondRound() public onlyOwner {\n        require(state == LotteryState.FirstRound, \"Must be first round\");\n        emit SecondRound(players);\n        state = LotteryState.SecondRound;\n    }\n\n    //Participants enter their original numbers\n    function enterNumber(uint8 number) public {\n        require(number<=250, \"1-250 only\");\n        require(state == LotteryState.SecondRound, \"Must be second round\");\n        require(keccak256(abi.encodePacked(number, msg.sender)) == playersHash[msg.sender], \"Number must be same as chosen\");\n        playersByNumber[number].push(msg.sender);\n        numbers.push(number);\n    }\n\n    //Owner determines winner\n    function determineWinner() public onlyOwner{\n        state = LotteryState.Finished;\n        winningNumber = random();\n        address payable[] memory winners = playersByNumber[winningNumber];\n        emit DetermineWinner(winningNumber, winners);\n        if (winners.length > 0) {\n            uint256 prizeAmount = SafeMath.div(address(this).balance, winners.length);\n            for (uint8 i = 0; i < winners.length; i++) {\n                address payable winner = winners[i];\n                winner.transfer(prizeAmount);\n            }\n        }\n    }\n\n    //Gets the winners\n    function getWinners() public view returns (address payable[] memory) {\n        require(state == LotteryState.Finished, \"LotteryState needs to be finished\");\n        return playersByNumber[winningNumber];\n    }\n\n    //Randomise the winning number by XOR\n    function random() private view returns (uint8) {\n        uint8 randomNumber = numbers[0];\n        for (uint8 i = 1; i < numbers.length; ++i) {\n            randomNumber ^= numbers[i];\n        }\n        return randomNumber;\n    }\n}",
  "sourcePath": "/home/administrator/Downloads/EtherLottery-master/contracts/Lottery.sol",
  "compiler": {
    "name": "solc",
    "version": "0.5.16+commit.9c3226ce.Emscripten.clang"
  },
  "schemaVersion": "3.4.10",
  "updatedAt": "2022-12-02T09:49:27.438Z",
  "devdoc": {
    "methods": {}
  },
  "userdoc": {
    "methods": {}
  }
}